:020000040804EE
:10000000000003200D0C0508FDFB040805FC040896
:1000100007FC040809FC04080BFC040800000000AD
:100020000000000000000000000000000DFC0408BB
:100030000FFC04080000000011FC040813FC040875
:100040005D0C05085D0C05085D0C05081DFC040829
:100050002DFC040835FC04085D0C05085D0C050842
:100060005D0C05085D0C05085D0C05085D0C0508B8
:100070005D0C05085D0C05085D0C05085D0C0508A8
:100080005D0C05085D0C050839FC04085D0C0508CD
:100090005D0C05085D0C05085D0C05085D0C050888
:1000A0005D0C05085D0C05085D0C05085D0C050878
:1000B0005D0C05085D0C05085D0C050849FC04088D
:1000C00059FC04085D0C05085D0C05085D0C05086D
:1000D0005D0C05085D0C05085D0C050869FC04084D
:1000E0005D0C050819FD04085D0C05085D0C05088C
:1000F0005D0C05085D0C05085D0C05085D0C050828
:100100005D0C05085D0C05085D0C05085D0C050817
:1001100029FD04085D0C05085D0C050841FD040877
:100120005D0C05085D0C05085D0C05085D0C0508F7
:1001300051FD04085D0C05085D0C05085D0C050803
:100140005D0C05085D0C05085D0C05085D0C0508D7
:100150005D0C05085D0C05085D0C05085D0C0508C7
:100160005D0C05085D0C05085D0C05085D0C0508B7
:100170005D0C05085D0C05085D0C05085D0C0508A7
:100180005D0C05085D0C05085D0C05085D0C050897
:100190005D0C05085D0C05085D0C05085D0C050887
:0C01A00000000000000000005D0C0508DD
:1001B00010B5054C237833B9044B13B10448AFF3A1
:1001C00000800123237010BD7C420020000000004D
:1001D000AC84050808B5034B1BB103490348AFF3D2
:1001E000008008BD0000000080420020AC840508AB
:1001F000034613F8012B002AFBD1181A0138704767
:1002000001F0FF01102A2BDB10F0070F08D010F8C7
:10021000013B013A8B422DD010F0070F42B3F6D1CB
:10022000F0B441EA012141EA014122F007047FF0E4
:1002300000070023F0E80256083C85EA010586EA3B
:10024000010685FA47F5A3FA87F586FA47F6A5FA77
:1002500087F68EB9EED1F0BC01F0FF0102F0070283
:1002600032B110F8013B013A83EA010313B1F8D12E
:100270000020704701387047002D06BF354603380F
:10028000073815F0010F07D1013015F4807F02BF48
:10029000013015F4C03F0130F0BC0138704700BF99
:1002A00081F0004102E000BF83F0004330B54FEA27
:1002B00041044FEA430594EA050F08BF90EA020F94
:1002C0001FBF54EA000C55EA020C7FEA645C7FEA27
:1002D000655C00F0E2804FEA5454D4EB5555B8BF4A
:1002E0006D420CDD2C4480EA020281EA030382EABB
:1002F000000083EA010180EA020281EA0303362D4D
:1003000088BF30BD11F0004F4FEA01314FF4801C1F
:100310004CEA113102D0404261EB410113F0004F31
:100320004FEA03334CEA133302D0524263EB4303E8
:1003300094EA050F00F0A780A4F10104D5F1200E86
:100340000DDB02FA0EFC22FA05F2801841F10001E1
:1003500003FA0EF2801843FA05F359410EE0A5F1B5
:1003600020050EF1200E012A03FA0EFC28BF4CF0E6
:10037000020C43FA05F3C01851EBE37101F000459C
:1003800007D54FF0000EDCF1000C7EEB00006EEBA9
:100390000101B1F5801F1BD3B1F5001F0CD3490833
:1003A0005FEA30004FEA3C0C04F101044FEA44528A
:1003B00012F5800F80F09A80BCF1004F08BF5FEA11
:1003C000500C50F1000041EB045141EA050130BDF1
:1003D0005FEA4C0C404141EB0101013C28BFB1F503
:1003E000801FE9D291F0000F04BF01460020B1FA4E
:1003F00081F308BF2033A3F10B03B3F120020CDA21
:100400000C3208DD02F1140CC2F10C0201FA0CF0FE
:1004100021FA02F10CE002F11402D8BFC2F1200C63
:1004200001FA02F120FA0CFCDCBF41EA0C01904019
:10043000E41AA2BF01EB0451294330BD6FEA040462
:100440001F3C1CDA0C340EDC04F11404C4F120024D
:1004500020FA04F001FA02F340EA030021FA04F35F
:1004600045EA030130BDC4F10C04C4F1200220FAB6
:1004700002F001FA04F340EA0300294630BD21FAF4
:1004800004F0294630BD94F0000F83F4801306BFBA
:1004900081F480110134013D4EE77FEA645C18BFAE
:1004A0007FEA655C29D094EA050F08BF90EA020F45
:1004B00005D054EA000C04BF1946104630BD91EA3D
:1004C000030F1EBF0021002030BD5FEA545C05D140
:1004D0004000494128BF41F0004130BD14F580047F
:1004E0003CBF01F5801130BD01F0004545F0FE41F3
:1004F00041F470014FF0000030BD7FEA645C1ABF28
:10050000194610467FEA655C1CBF0B46024650EA5E
:10051000013406BF52EA033591EA030F41F400218A
:1005200030BD00BF90F0000F04BF0021704730B510
:100530004FF4806404F132044FF000054FF00001E5
:1005400050E700BF90F0000F04BF0021704730B5A6
:100550004FF4806404F1320410F0004548BF40427B
:100560004FF000013EE700BF42004FEAE2014FEAD0
:1005700031014FEA02701FBF12F07F4393F07F4FAB
:1005800081F06051704732F07F4208BF704793F0AE
:100590007F4F04BF41F40021704730B54FF46074C1
:1005A00001F0004521F000411CE700BF50EA0102C4
:1005B00008BF704730B54FF000050AE050EA01026D
:1005C00008BF704730B511F0004502D5404261EBDD
:1005D00041014FF4806404F132045FEA915C3FF41E
:1005E000D8AE4FF003025FEADC0C18BF03325FEABB
:1005F000DC0C18BF033202EBDC02C2F1200300FA6C
:1006000003FC20FA02F001FA03FE40EA0E0021FA90
:1006100002F11444BDE600BF70B54FF0FF0C4CF47E
:10062000E06C1CEA11541DBF1CEA135594EA0C0F30
:1006300095EA0C0F00F0DEF82C4481EA030621EA6B
:100640004C5123EA4C5350EA013518BF52EA0335A6
:1006500041F4801143F4801338D0A0FB02CE4FF058
:100660000005E1FB02E506F00042E0FB03E54FF088
:100670000006E1FB03569CF0000F18BF4EF0010E80
:10068000A4F1FF04B6F5007F64F5407404D25FEA7C
:100690004E0E6D4146EB060642EAC62141EA55512F
:1006A0004FEAC52040EA5E504FEACE2EB4F1FD0C71
:1006B00088BFBCF5E06F1ED8BEF1004F08BF5FEAEF
:1006C000500E50F1000041EB045170BD06F00046A1
:1006D00046EA010140EA020081EA0301B4EB5C044E
:1006E000C2BFD4EB0C0541EA045170BD41F4801146
:1006F0004FF0000E013C00F3AB8014F1360FDEBF6B
:10070000002001F0004170BDC4F10004203C35DA46
:100710000C341BDC04F11404C4F1200500FA05F3C9
:1007200020FA04F001FA05F240EA020001F000426A
:1007300021F0004110EBD37021FA04F642EB0601E0
:100740005EEA430E08BF20EAD37070BDC4F10C040A
:10075000C4F1200500FA04F320FA05F001FA04F2CE
:1007600040EA020001F0004110EBD37041F10001BA
:100770005EEA430E08BF20EAD37070BDC4F12005C5
:1007800000FA05F24EEA020E20FA04F301FA05F22D
:1007900043EA020321FA04F001F0004121FA04F2D5
:1007A00020EA020000EBD3705EEA430E08BF20EAA5
:1007B000D37070BD94F0000F0FD101F000464000DF
:1007C00041EB010111F4801F08BF013CF7D041EA61
:1007D000060195F0000F18BF704703F00046520065
:1007E00043EB030313F4801F08BF013DF7D043EA36
:1007F0000603704794EA0C0F0CEA135518BF95EAEC
:100800000C0F0CD050EA410618BF52EA4306D1D172
:1008100081EA030101F000414FF0000070BD50EA91
:10082000410606BF1046194652EA430619D094EA1B
:100830000C0F02D150EA013613D195EA0C0F05D105
:1008400052EA03361CBF104619460AD181EA030159
:1008500001F0004141F0FE4141F470014FF0000011
:1008600070BD41F0FE4141F4780170BD70B54FF0AC
:10087000FF0C4CF4E06C1CEA11541DBF1CEA13552C
:1008800094EA0C0F95EA0C0F00F0A7F8A4EB05040E
:1008900081EA030E52EA03354FEA013100F0888005
:1008A0004FEA03334FF0805545EA131343EA1263CE
:1008B0004FEA022245EA111545EA10654FEA002683
:1008C0000EF000419D4208BF964244F1FD0404F53C
:1008D000407402D25B084FEA3202B61A65EB030598
:1008E0005B084FEA32024FF480104FF4002CB6EB55
:1008F000020E75EB030E22BFB61A754640EA0C00D5
:100900005B084FEA3202B6EB020E75EB030E22BF14
:10091000B61A754640EA5C005B084FEA3202B6EB55
:10092000020E75EB030E22BFB61A754640EA9C0014
:100930005B084FEA3202B6EB020E75EB030E22BFE4
:10094000B61A754640EADC0055EA060E18D04FEAA2
:10095000051545EA16754FEA06164FEAC30343EA42
:1009600052734FEAC2025FEA1C1CC0D111F4801F0F
:100970000BD141EA00014FF000004FF0004CB6E708
:1009800011F4801F04BF01430020B4F1FD0C88BFA7
:10099000BCF5E06F3FF6AFAEB5EB030C04BFB6EBB2
:1009A000020C5FEA500C50F1000041EB045170BDA5
:1009B0000EF0004E4EEA113114EB5C04C2BFD4EBD2
:1009C0000C0541EA045170BD41F480114FF0000E56
:1009D000013C90E645EA060E8DE60CEA135594EAD2
:1009E0000C0F08BF95EA0C0F3FF43BAF94EA0C0FD5
:1009F0000AD150EA01347FF434AF95EA0C0F7FF44A
:100A000025AF104619462CE795EA0C0F06D152EA9D
:100A100003353FF4FDAE1046194622E750EA410681
:100A200018BF52EA43067FF4C5AE50EA41047FF492
:100A30000DAF52EA43057FF4EBAE12E74FF0FF3CF7
:100A400006E000BF4FF0010C02E000BF4FF0010CC8
:100A50004DF804CD4FEA410C7FEA6C5C4FEA430C41
:100A600018BF7FEA6C5C1BD001B050EA410C0CBF90
:100A700052EA430C91EA030F02BF90EA020F0020F2
:100A8000704710F1000F91EA030F58BF994208BF59
:100A900090422CBFD8176FEAE37040F00100704716
:100AA0004FEA410C7FEA6C5C02D150EA013C07D16D
:100AB0004FEA430C7FEA6C5CD6D152EA033CD3D0B8
:100AC0005DF8040B704700BF8446104662468C46B2
:100AD0001946634600E000BF01B5FFF7B7FF0028E5
:100AE00048BF10F1000F01BD4DF808EDFFF7F4FF0E
:100AF0000CBF012000205DF808FB00BF4DF808ED99
:100B0000FFF7EAFF34BF012000205DF808FB00BFBB
:100B10004DF808EDFFF7E0FF94BF012000205DF8DD
:100B200008FB00BF4DF808EDFFF7CEFF94BF012092
:100B300000205DF808FB00BF4DF808EDFFF7C4FF8B
:100B400034BF012000205DF808FB00BF4FEA410CD4
:100B50007FEA6C5C02D150EA013C0AD14FEA430CB7
:100B60007FEA6C5C02D152EA033C02D14FF00000F4
:100B700070474FF0010070474FEA410212F5001232
:100B800015D211D56FF47873B3EB625212D94FEAD4
:100B9000C12343F0004343EA505311F0004F23FABE
:100BA00002F018BF404270474FF00000704750EA13
:100BB000013005D111F0004008BF6FF000407047D0
:100BC0004FF00000704700BF4A0011D212F500122A
:100BD00011D20DD56FF47873B3EB62520ED44FEA95
:100BE000C12343F0004343EA505323FA02F0704715
:100BF0004FF00000704750EA013002D14FF0FF3053
:100C000070474FF0000070474FEA4102B2F1E043F5
:100C100024BFB3F5001CDCF1FE5C0DD901F0004CE3
:100C20004FEAC0024CEA5070B2F1004F40EB830033
:100C300008BF20F00100704711F0804F21D113F15F
:100C40003872BCBF01F00040704741F480114FEA98
:100C50005252C2F11802C2F1200C10FA0CF320FA21
:100C600002F018BF40F001004FEAC1234FEAD3233E
:100C700003FA0CFC40EA0C0023FA02F34FEA4303A8
:100C8000CCE77FEA625307D150EA01331EBF4FF031
:100C9000FE4040F44000704701F0004040F0FE404C
:100CA00040F40000704700BF53B94AB9002908BF9B
:100CB00000281CBF4FF0FF314FF0FF3000F0A4B907
:100CC000ADF1080C6DE904CE00F03CF8DDF804E06D
:100CD000DDE9022304B0704738B500220023044642
:100CE0000D46FFF70BFF28B920462946BDE83840DE
:100CF00000F00AB8204605F1004100F005F8404236
:100D000061EB410138BD00BFD0B50C4B0022064657
:100D10000F46FFF781FCFFF757FF0446FFF702FC81
:100D2000074B0022FFF778FC02460B463046394657
:100D3000FFF7BAFAFFF748FF2146D0BD0000F03DAB
:100D40000000F0412DE9F047089D04468C46002B39
:100D500040F083808A42174647D9B2FA82F242B104
:100D6000C2F1200024FA00F09140974040EA010CC3
:100D700094404FEA1748230CBCFBF8F61FFA87FE95
:100D800008FB16C143EA014306FB0EF1994209D95B
:100D9000FB1806F1FF3080F01981994240F216816C
:100DA000023E3B445B1AA4B2B3FBF8F008FB1033DD
:100DB00044EA034400FB0EFEA64509D93C1900F1A4
:100DC000FF3380F00581A64540F2028102383C44A1
:100DD00040EA0640A4EB0E0400261DB1D4400023D7
:100DE000C5E900433146BDE8F08702B9FFDEB2FA3B
:100DF00082F2002A50D1CB1B4FEA174E1FFA87F818
:100E00000126B3FBFEFC210C0EFB1C3341EA03411F
:100E100008FB0CF38B4207D979180CF1FF3002D292
:100E20008B4200F2E9808446C91AA3B2B1FBFEF0FE
:100E30000EFB101143EA014408FB00F8A04507D956
:100E40003C1900F1FF3302D2A04500F2D9801846C8
:100E5000A4EB080440EA0C40BFE78B4209D9002DFF
:100E600000F0B1800026C5E9000130463146BDE8FA
:100E7000F087B3FA83F6002E4AD18B4202D3824226
:100E800000F2B880841A61EB030101208C46002D2A
:100E9000A8D0C5E9004CA5E7C2F1200320FA03F66B
:100EA000974001FA02F04FEA174ED9403043030C45
:100EB000B1FBFEF61FFA87F80EFB161143EA014359
:100EC00006FB08F1994204FA02F409D9FB1806F16D
:100ED000FF3C80F08D80994240F28A80023E3B4484
:100EE0005B1A81B2B3FBFEF00EFB103341EA034103
:100EF00000FB08F38B4207D9791800F1FF3C73D24D
:100F00008B4271D902383944CB1A40EA064678E759
:100F1000C6F1200C03FA06F422FA0CF31C4320FA63
:100F20000CF701FA06F34FEA144E21FA0CF11F43B5
:100F30003B0CB1FBFEF91FFA84F80EFB191143EAD2
:100F4000014109FB08FA8A4502FA06F200FA06F3A3
:100F500008D9611809F1FF3048D28A4546D9A9F16C
:100F600002092144A1EB0A01BFB2B1FBFEF00EFB66
:100F7000101147EA014700FB08F8B84507D9E719FF
:100F800000F1FF312ED2B8452CD90238274440EA6F
:100F90000940A7EB0807A0FB02894F45C646494612
:100FA0001AD317D05DB1B3EB0E0267EB010707FA56
:100FB0000CFCF2404CEA0202F740C5E9002700268B
:100FC0003146BDE8F0872E4628460BE70646E9E69F
:100FD0001846FDE64345E5D2B8EB020E69EB040185
:100FE0000138DFE70846D2E760468DE78146B9E77A
:100FF000664675E730464AE7ACF1020C394413E720
:1010000002383C4424E700BF704700BF10B50446D7
:101010000E4B18784FF47A73B3FBF0F30C4A106858
:10102000B0FBF3F000F096FC68B90F2C01D9012059
:101030000AE0002221464FF0FF3000F049FC034B4C
:101040005C60002000E0012010BD00BF0000002017
:101050007438002008B50B4B1A6842F400721A600D
:101060001A6842F480621A601A6842F480721A6048
:10107000032000F01BFC0020FFF7C8FF0EF092FDDC
:10108000002008BD003C0240034A1168034B1B7856
:101090000B441360704700BF48540020000000203C
:1010A000014B1868704700BF4854002038B504460B
:1010B000FFF7F6FF0546B4F1FF3F02D0044B1B7863
:1010C0001C44FFF7EDFF401BA042FAD338BD00BF20
:1010D000000000204A4B5A6822F440325A605A6895
:1010E00041680A435A600268536823F4807353606E
:1010F00002685368016943EA012353600268536838
:1011000023F0407353600268536881680B43536057
:101110000268936823F40063936002689368C1686F
:101120000B439360826A374B9A4257D002689368A8
:1011300023F07063936002689368816A0B43936045
:101140000268936823F04053936002689368C16A11
:101150000B4393600268936823F002039360026874
:101160009368017E43EA4103936090F82030002B9E
:101170003FD00268536843F40063536002685368C9
:1011800023F46043536001684B68426A013A43EAC2
:1011900042334B600268D36A23F47003D362016860
:1011A000CB6AC269013A43EA0253CB620268936890
:1011B00023F4007393600268936890F8301043EA58
:1011C000412393600268936823F48063936002680C
:1011D0009368416943EA812393607047026893688A
:1011E00023F0706393600268936823F04053936028
:1011F000B0E70268536823F400635360CAE700BF96
:10120000002301400100000F38B310B50446036C01
:1012100043B1236C13F0100F0BD00120002384F88E
:101220003C3010BD0AF0B6F90023636484F83C300A
:10123000EFE7236C23F4885323F0020343F0020307
:1012400023642046FFF746FF00206064236C23F0F0
:10125000030343F001032364E0E70120704700002B
:1012600082B00023019390F83C30012B00F0858080
:10127000012380F83C3003689A6812F0010F13D103
:101280009A6842F001029A60404B1B68404AA2FBF8
:1012900003239B0C03EB4303019302E0019B013BFF
:1012A0000193019B002BF9D10268936813F0010FA1
:1012B00065D0036C23F4E06323F0010343F48073EF
:1012C0000364536813F4806F05D0036C23F4405318
:1012D00043F480530364036C13F4805F22D0436CA7
:1012E00023F006034364002380F83C306FF02203B0
:1012F00013600268536843F0806343F02003536037
:10130000244B5B6813F01F0F27D10368224A9342D6
:1013100011D002F58072934207D0204A934214D034
:1013200000202DE000234364DDE702F500725268DF
:1013300012F01F0FF1D19A6812F0405F22D19A6823
:1013400042F080429A6000201AE002F580725268F2
:1013500012F0100FEFD0002012E003680E4A934203
:1013600001D000200CE09A6812F0405F0CD19A681E
:1013700042F080429A60002002E0022000E000205B
:1013800002B070470020FBE70020F9E77438002026
:1013900083DE1B4300230140002001400022014066
:1013A00030B583B013460022019290F83C20012A08
:1013B00000F09A800546012280F83C20026890687F
:1013C00010F0010F13D1906840F0010090604B4A7B
:1013D00010684B4AA2FB0020800C00EB40000190FB
:1013E00002E0019C013C019401980028F9D12A688F
:1013F000906810F0010F79D0286C20F4E06020F0A4
:10140000010040F480702864526812F4806F05D0A7
:101410002A6C22F4405242F480522A642A6C12F45C
:10142000805F36D06A6C22F006026A64002285F87A
:101430003C20AA6B3348D063AA6B33481064AA6B74
:101440003248D0642A686FF0220010602868426831
:1014500042F0806242602868826842F48072826052
:1014600028680A4600F14C01A86B00F06FFB284B7E
:101470005B6813F01F0F27D12B68264A934211D0C7
:1014800002F58072934207D0234A934214D0002081
:101490002DE000226A64C9E702F50072526812F07A
:1014A0001F0FF1D19A6812F0405F22D19A6842F082
:1014B00080429A6000201AE002F58072526812F0B1
:1014C000100FEFD0002012E02B68124A934201D097
:1014D00000200CE09A6812F0405F0CD19A6842F04C
:1014E00080429A60002002E0022000E0002003B069
:1014F00030BD0020FBE70020F9E700BF7438002072
:1015000083DE1B43911604081F1504087B1604088C
:10151000002301400020014000220140704708B52F
:10152000806BFFF7FBFF08BD7047704738B5044676
:1015300002681168536811F0020F2FD003F02003E6
:1015400063B3036C13F0100F03D1036C43F4007307
:101550000364936813F0405F19D1237EBBB9D36A4B
:1015600013F4700F03D0936813F4806F0FD1536896
:1015700023F020035360236C23F480732364236CD3
:1015800013F4805F03D1236C43F0010323642046EE
:101590000EF098FE23686FF012021A602368196833
:1015A0005A6802F0800211F0040F36D0002A34D0BD
:1015B000226C12F0100F03D1226C42F4005222640C
:1015C0009A6812F4401F21D19A6B12F4401F03D085
:1015D0009A6812F4806F19D15A6812F4806F15D18D
:1015E0009A6812F0405F11D1227E7AB95A6822F0CF
:1015F00080025A60236C23F480532364236C13F419
:10160000807F03D1236C43F001032364204600F064
:101610004BF923686FF00C021A6022681168536856
:1016200003F0400311F0010F04D01BB1136813F055
:10163000010F09D122681168536803F0806311F02B
:10164000200F00D063B938BD236C43F4803323648A
:101650002046FFF769FF23686FF001021A60E9E78F
:10166000636C43F0020363646FF02005156020464D
:10167000FFF75BFF23681D60E5E708B5806B40233B
:101680000364436C43F004034364FFF74EFF08BD5B
:1016900008B50346806B026C12F0500F25D1036C25
:1016A00043F40073036403689A6812F0405F19D131
:1016B000027EBAB9DA6A12F4700F03D09A6812F493
:1016C000806F0FD15A6822F020025A60036C23F415
:1016D00080730364036C13F4805F03D1036C43F0E5
:1016E000010303640EF0EEFD08BD026C12F0100F52
:1016F00004D1826BD26C18469047F5E7FFF715FFCF
:10170000F2E7000030B482B00023019390F83C303F
:10171000012B00F0BD80012380F83C300B68092BC1
:101720003ED90568EA689BB203EB43031E3B0724DE
:1017300004FA03F322EA0303EB600568EA688C68A5
:101740000B8803EB43031E3B04FA03F31343EB60E4
:101750004B68062B3AD805686A6B03EB8303053B9D
:101760001F2404FA03F322EA03036B6305686A6B20
:101770004B6803EB8303053B0C8804FA03F3134324
:101780006B630268434B9A4250D00268414B9A42C5
:1017900059D0002380F83C30184602B030BC704766
:1017A00005682A699BB203EB4303072404FA03F399
:1017B00022EA03032B6105682A698C680B8803EB16
:1017C000430304FA03F313432B61C1E70C2B16D830
:1017D00005682A6B03EB8303233B1F2404FA03F3FE
:1017E00022EA03032B6305682A6B4B6803EB830330
:1017F000233B0C8804FA03F313432B63C1E705680A
:10180000EA6A03EB8303413B1F2404FA03F322EA51
:101810000303EB620568EA6A4B6803EB8303413B11
:101820000C8804FA03F31343EB62AAE70B68122B4C
:10183000ABD1194B5A6822F400025A605A6842F43C
:1018400080025A60A1E70B68144A934201D0112B21
:101850009FD1114B5A6822F480025A605A6842F4B0
:1018600000025A600A680D4B9A4292D10C4B1B68D9
:101870000C4AA2FB03239B0C03EB83035B00019345
:1018800002E0019B013B0193019B002BF9D180E712
:10189000022082E7002001400023014012000010D6
:1018A0007438002083DE1B4370470000074AD3686A
:1018B00023F4E0631B041B0C000200F4E06003430C
:1018C00043F0BF6343F40033D360704700ED00E0A2
:1018D00030B4174BDB68C3F30223C3F10704042CB5
:1018E00028BF04241D1D062D18D9033B4FF0FF35DA
:1018F00005FA04F421EA0401994005FA03F322EA07
:101900000303194300280BDB0901C9B200F1604051
:1019100000F5614080F8001330BC70470023E5E714
:1019200000F00F000901C9B2024B1954F4E700BFDF
:1019300000ED00E014ED00E0002807DB00F01F02DE
:10194000400901239340024A42F82030704700BF0B
:1019500000E100E00138B0F1807F0AD2064B586008
:10196000064AF02182F823100020986007221A60AE
:1019700070470120704700BF10E000E000ED00E07C
:1019800030B405682C6824F480242C6004686360FB
:101990008368402B05D0036899600368DA6030BC27
:1019A000704703689A600368D960F8E710B4036869
:1019B000D9B210390C4AA2FB014212090B4CA25CAD
:1019C000C2655F2909D923F47F7323F0030304332D
:1019D0008365806D5DF8044B704723F47F7323F0BB
:1019E00003038365F5E700BFABAAAAAAC88405086C
:1019F000836A826992B9012B0AD0022B02D00BB103
:101A000000207047C36A13F0807F28D10020704700
:101A1000C36AB3F1C07F24D000207047B2F5005FE5
:101A200009D0022B25D9032B25D1C36A13F0807F5F
:101A300023D100207047032B03D8DFE803F0140400
:101A4000140A00207047C36A13F0807F0DD1002074
:101A50007047C36AB3F1C07F09D0002070470120EE
:101A60007047012070470120704701207047012016
:101A70007047012070470020704701207047000028
:101A800070B50446FFF70CFB002C5BD00546002325
:101A900084F83430022384F835302268136823F048
:101AA0000103136023681A6812F0010F0AD0FFF7D0
:101AB000F7FA431B052BF5D920236365032084F82F
:101AC000350070BD1A68204810406168A2680A435A
:101AD000E1680A4321690A4361690A43A1690A432B
:101AE000E1690A43216A0A430243616A04291ED05C
:101AF0001A602668756925F00705636A1D43042B83
:101B000007D1A36A1D43E36A1BB12046FFF770FFAC
:101B100090B975612046FFF749FFE26D3F2393407E
:101B2000836000206065012384F83530C9E7E16AED
:101B3000206B01430A43DBE740236365012084F8FF
:101B40003500BEE70120BCE73F8010F038B5044601
:101B5000856D90F83400012830D0012084F83400DD
:101B600094F83500C0B2012804D0002384F8343042
:101B7000022038BD022084F8350000206065204630
:101B8000FFF7FEFEE26D3F239340AB6022681368CF
:101B900043F0160313602268536943F080035361D6
:101BA000236C23B12268136843F008031360226892
:101BB000136843F0010313600020DAE70220D8E73E
:101BC00090F83530DBB2022B03D08023436501202F
:101BD0007047052380F835300268136823F001034D
:101BE0001360002070470000F0B583B00446002366
:101BF0000193724B1D68724BA3FB0535AD0A876DCF
:101C00003E68C26D08239340334210D003681A68BF
:101C100012F0040F0BD01A6822F004021A60C26D91
:101C200008239340BB60436D43F001034365E26DBD
:101C300001239340334209D02268526912F0800F89
:101C400004D0BB60636D43F002036365E26D04235F
:101C50009340334209D02268126812F0020F04D078
:101C6000BB60636D43F004036365E26D1023934032
:101C7000334224D02268126812F0080F1FD0BB60D4
:101C800023681A6812F4802F0DD01B6813F4002FFC
:101C900004D1236C9BB12046984710E0A36C73B12C
:101CA000204698470BE01A6812F4807F03D11A6827
:101CB00022F008021A60236C0BB120469847E26DAF
:101CC00020239340334255D02268126812F0100F3F
:101CD00050D0BB6094F83530DBB2052B0ED02368B2
:101CE0001A6812F4802F33D01B6813F4002F2AD106
:101CF000636C002B3ED0204698473BE02268136877
:101D000023F0160313602268536923F080035361A4
:101D1000236CA3B12268136823F008031360E26DFB
:101D20003F239340BB60002384F83430012384F8C0
:101D30003530236D002B3FD0204698473CE0A36C04
:101D4000002BE7D1EBE7E36BA3B12046984711E006
:101D50001A6812F4807F09D11A6822F010021A6002
:101D6000002384F83430012384F83530E36B0BB161
:101D700020469847636DFBB1636D13F0010F17D0D8
:101D8000052384F835302268136823F001031360BB
:101D9000019B01330193AB4204D823681B6813F005
:101DA000010FF5D1002384F83430012384F8353055
:101DB000E36C0BB12046984703B0F0BD74380020A7
:101DC000B5814E1B90F835007047000050791379AB
:101DD00043EA002307480B50D07893781B0443EA6A
:101DE0000063507843EA002312781343024A8B5071
:101DF000704700BF4080024044800240016841F2C9
:101E000018028B5843F400538B507047016841F21D
:101E100018028B5843F002038B50704782B0084B76
:101E20001B68084AA2FB03235B0A00FB03F3019330
:101E300000BF019B5A1E0192002BF9D102B07047DE
:101E400074380020D34D621010B582B004460023D0
:101E500001930268136843F00803136003681B686A
:101E600001930120FFF7DAFF2368019A1A6002B09C
:101E700010BD10B582B004460023019302681368B8
:101E800043F00403136003681B6801930120FFF70C
:101E9000C5FF2368019A1A6002B010BD30B583B047
:101EA000044600230193026841F21805535943F494
:101EB0008013535103685B5901930120FFF7AEFF74
:101EC0002368019A5A5103B030BD000070B59EB02E
:101ED000044629B14FF40063C3604FF4804383602C
:101EE000E369002B6AD14FF48063079321680B6884
:101EF000394A1A40A368E06803430798034343F450
:101F0000007313430B6023681D680120FFF7CEF8B0
:101F100023681D60236840225A6023685D680120A1
:101F2000FFF7C4F823685D60236800259D6023687F
:101F3000DD602268936923F0BE031B041B0C43F091
:101F40008003936123689E690120FFF7AFF823683F
:101F50009E612368DD612368DD690120FFF7A6F833
:101F60002368DD61226841F2180551591B4B0B4073
:101F700043F0087343F00403535123685E59012072
:101F8000FFF794F823685E51236803F58053144AE1
:101F90001A60236803F580531D680120FFF786F857
:101FA000236803F580531D60A369012B09D0626982
:101FB00000212046FFF70AFF1EB070BD00230793E3
:101FC00094E7216841F21C028B5843F4803343F0BC
:101FD00040038B50EBE700BF0F8120FF233FDEF86B
:101FE0008020C102F0B490F84540012C32D0012489
:101FF00080F84540022480F84440C162002401E09A
:10200000F16001349C4218D2670101EB44164FF491
:102010008015CD5140F2F45505FB0425B560C56926
:102020001DB9CD5945F44005CD515D1EA542E7D9F6
:10203000651C01EB4515F560E3E7026841F210030A
:10204000D150012380F84430002380F845301846F1
:10205000F0BC70470220FBE7F0B490F84540012C3B
:102060002FD0012480F84540022480F8444081624A
:10207000002401E0E96001349C4215D2660101EBC5
:1020800044154FF000478F5144F2F4566E6040F211
:10209000F45606FB0426AE605E1EA642EAD9661C14
:1020A00001EB4616EE60E6E7026841F20C03D15000
:1020B000012380F84430002380F845301846F0BCF6
:1020C00070470220FBE7000090F84530012B00F03C
:1020D0008580012380F84530022380F84430B1B177
:1020E000C36A1A68002A1ADB30B440F2F4529142F3
:1020F0001DD93B4CA4FB0124A40A40F2F45202FB7C
:10210000141202B10134012C11D0002348E0012344
:1021100080F84430002280F845201846704712238A
:1021200080F84430002380F84530012070471A6859
:1021300042F040521A60C36AC1F30C015960C26A8E
:10214000136843F000431360C36ADB68C36203682B
:1021500041F214029A5812F0040F08D041F214020E
:1021600004219950026841F204030021D150012357
:1021700080F84430002380F84530184630BC704762
:10218000C26A40F2F4555560621E9A4217D0C56A81
:102190002A6842F000422A60C26AD268C2620133F1
:1021A0009C42D4D9C56A2A6822F040522A60002B8A
:1021B000E6D1C56A2A6842F080522A60E0E7C56A23
:1021C0002A6842F000522A60064A02FB041202F218
:1021D000F452C56AC2F30C026A60D8E70220704765
:1021E0000BB002AC0CFAFFFF90F84530012B40D049
:1021F000012380F84530022380F84430836A1A684E
:10220000002A0EDB1A6812F4807F12D11A6812F4C9
:10221000007F28D003630022426301228263DB68CF
:102220008362012380F84430002280F8452018465C
:102230007047826B01328263012A12D043631A68AD
:10224000C2F30D42043AC263026B92680264DB6817
:102250008362012380F84430002380F8453018461B
:1022600070470363EAE7826B01328263DB68836253
:10227000D7E702207047F8B590F84430DBB2822BE4
:1022800033D005461646822380F844300068026940
:1022900002F01C022B8ADB029BB213438C0104F474
:1022A000F8641C4344F001040461FEF7F9FE07469C
:1022B00014F0010F10D0FEF7F3FEC31BB3F5803FFF
:1022C00002D22B681C69F3E7012385F84430002310
:1022D00085F84530032007E02B685B699BB23360CB
:1022E000012385F844300020F8BD0220FCE790F877
:1022F0004430DBB2422B32D070B50546422380F821
:1023000044300668306900F01C002B8ADB029BB267
:1023100003438C0104F4F8641C4344F0030492B2B8
:1023200072612B681C61FEF7BBFE064614F0010FBC
:1023300010D0FEF7B5FE831BB3F5803F02D22B68A9
:102340001C69F3E7012385F84430002385F8453004
:10235000032003E0012385F84430002070BD0220F3
:102360007047000070B582B000230193002800F090
:102370000E81044690F84430002B34D000230093A3
:10238000844B5A6C42F480425A645B6C03F4804381
:102390000093009B804B5A6822F400025A605A68EE
:1023A000216A0A435A60236803F580531A6842F091
:1023B00001021A60FEF774FE0546236803F5805299
:1023C000126812F0010F13D0FEF76AFE401BB0F541
:1023D000FA7FF2D9032584F84450002384F845306D
:1023E000284602B070BD80F8453009F0E9FAC5E72B
:1023F0001D6925F01C0501F0FDFF684B0344684A88
:10240000934255D245F0080523681D614FF4004200
:1024100000212046FFF76BFF0546002860D1FF2012
:10242000FEF744FE6368002B00F09180FEF738FE53
:10243000064601AA01212046FFF71DFFFEF730FEE8
:10244000801B41F28833984252D8019B13F0040F4D
:10245000EFD04FF4805200212046FFF748FF0028BC
:1024600052D1FEF71DFE064601AA01212046FFF7C4
:1024700002FFFEF715FE801B41F2883398424BD8CD
:10248000019B13F0200FEFD001AA1F212046FFF778
:10249000F2FE00284CD1019B13F0100F50D04FF4E6
:1024A0000062E26013F0040F4DD00023A3605EE0F1
:1024B0003C4B03443C4A934202D845F00C05A3E749
:1024C0003A4B03443A4A93429ED33A4B03443A4A26
:1024D000934202D845F0040596E745F0100593E7CE
:1024E00001212046FFF7F2FC012584F8445077E7EC
:1024F00001212046FFF7EAFC012384F84430002341
:1025000084F8453003256BE701212046FFF7DEFC08
:10251000012584F8445063E701212046FFF7D6FCEB
:10252000012384F84430002384F84530032557E71D
:1025300001212046FFF7CAFC012584F844504FE7EB
:102540000022E260AEE74FF48043A3600FE0E26850
:10255000C2F3CF02A368C3F34F031A4300212046FE
:10256000FFF7C5FE58B940F6FF70FEF79FFD00214A
:102570002046FFF7ABFC012384F8443030E701210B
:102580002046FFF7A3FC012584F8445028E70125E5
:1025900026E700BF003802400038014000D3CEFEDD
:1025A000C0E1E40040F1E9FD3F787D0100796CFC79
:1025B000005A6202001F0AFA7FF0FA0238B590F85A
:1025C0004530012B1AD00446012580F845500223DE
:1025D00080F84430FFF738FC2046FFF74AFC2046DD
:1025E000FFF75CFC2046FFF709FC2046FFF70EFCD6
:1025F00084F84450002084F8450038BD0220FCE7F0
:1026000010B409490C6924F440740C610C6944F459
:1026100040740C610C6944F001040C610260436079
:102620005DF8044B704700BF003C0240074B1A693D
:1026300022F440721A611A6942F400721A611A692E
:1026400042F001021A610160704700BF003C024085
:10265000074B1A6922F440721A611A6942F48072B7
:102660001A611A6942F001021A610180704700BFC5
:10267000003C0240064B1A6922F440721A611A6942
:102680001A611A6942F001021A610170704700BFB5
:10269000003C0240274BDB6813F0100F07D0264A9E
:1026A000D36943F01003D361224B1022DA60214B2F
:1026B000DB6813F0200F07D01F4AD36943F00803EB
:1026C000D3611C4B2022DA601A4BDB6813F0400FF9
:1026D00007D0194AD36943F00403D361154B402254
:1026E000DA60144BDB6813F0800F07D0124AD3690D
:1026F00043F00203D3610F4B8022DA600D4BDB689D
:1027000013F4807F08D00C4AD36943F00103D361EE
:10271000084B4FF48072DA60064BDB6813F0020F4F
:1027200007D0054AD36943F02003D361014B02224D
:10273000DA607047003C02404C54002070477047FC
:1027400010B53B4BDB6813F4F97F13D0394B1B7882
:10275000DBB2012B3DD0374B1B78DBB2022B3ED0D6
:10276000344B5C69FFF796FF2046FFF7E8FF314BDB
:1027700000221A702E4BDB6813F0010F13D02C4B84
:102780000122DA602B4B1B78DBB293422AD0294B13
:102790001B78DBB2022B43D0264B5869FFF7CEFFE4
:1027A000244B00221A70234B1B788BB9204B1A69DB
:1027B00022F4004222F0FF021A611A6922F08072AC
:1027C0001A611A6922F000721A611A4B00221A76F5
:1027D00010BD184BDC684FF0FF32DA60C2E7154BD2
:1027E0001C69BFE7134B5A68013A5A605B685BB1DA
:1027F000104CE068FFF7A2FFE3680133E360E06894
:10280000217A00F0CFF8CEE70A4B4FF0FF34DC60BE
:1028100000221A7000F0F4F82046FFF78FFFC2E79D
:1028200000F0EEF8034B1869FFF788FFB8E700BF28
:10283000003C02404C540020094B1B69002B01DB7B
:1028400000207047064B074A5A6002F188325A60EE
:102850001B69002B01DB002070470120704700BF7F
:10286000003C024023016745034A136943F00043DB
:1028700013610020704700BF003C024038B5044699
:10288000144B0022DA61FEF70BFC0546124BDB68A5
:1028900013F4803F0AD0B4F1FF3FF7D024B1FEF724
:1028A000FFFB401BA042F1D903200DE00A4BDB687F
:1028B00013F0010F02D0084B0122DA60064BDB68EF
:1028C00013F4F97F01D1002038BDFFF7E3FE0120AA
:1028D000FAE700BF4C540020003C0240F8B5164611
:1028E0001B4A127E012A30D004460D461F46184B63
:1028F00001221A764CF25030FFF7C0FF90B9ACB10C
:10290000012C18D0022C1BD032463B462846FFF73C
:1029100077FE4CF25030FFF7B1FF0E4A136923F0F7
:10292000010313610A4B00221A76F8BDF1B2284662
:10293000FFF7A0FEEDE7B1B22846FFF789FEE8E712
:1029400031462846FFF772FEE3E70220EDE700BFBD
:102950004C540020003C0240114A136923F4407398
:10296000136103290ED0012913D00D4A136943F4D2
:10297000004313610A4A136943EA002040F480309F
:1029800010617047136943F4004343F0040313617B
:10299000F0E7034A136943F004031361EAE700BF59
:1029A000003C024010B449B1012924D0022902D0D0
:1029B0004FF4407403E04FF4007400E000240B284F
:1029C00000D904300D4B196921F4407119611A695D
:1029D00022431A611A6922F0F8021A611A6942EA5E
:1029E000C00040F0020018611A6942F480321A6196
:1029F0005DF8044B70474FF48074E0E7003C024000
:102A0000164B1B6813F4007F10D0144B1A6822F485
:102A100000721A601A6842F400621A601A6822F49E
:102A200000621A601A6842F400721A600B4B1B684D
:102A300013F4806F10D0094B1A6822F480621A6078
:102A40001A6842F480521A601A6822F480521A609E
:102A50001A6842F480621A60704700BF003C02406E
:102A6000F8B5234B1B7E012B40D004460E46204B6D
:102A700001221A764CF25030FFF700FF074680BB68
:102A80004FF0FF3333602368012B16D0A568E3684D
:102A9000A2681344AB4222D9217C2846FFF782FF6B
:102AA0004CF25030FFF7EAFE124A136923F0FA03A2
:102AB0001361074690B90135E9E76168207CFFF7AB
:102AC0004BFF4CF25030FFF7D9FE0746094A136915
:102AD00023F4004323F00403136100E03560FFF7A3
:102AE0008FFF034B00221A763846F8BD0227FBE71A
:102AF0004C540020003C024000230F2B00F2E580E4
:102B0000F0B482B039E0092200E00022B2403A433A
:102B100002346E4E46F824206D4A1468EA4324EAD3
:102B200005064F6817F4803F01D045EA0406684C5B
:102B30002660646802EA04064F6817F4003F01D07B
:102B400045EA0406624C6660A46802EA04064F681F
:102B500017F4801F01D045EA04065D4CA660E468C6
:102B600022404E6816F4001F01D045EA0402584C7A
:102B7000E26001330F2B00F2A58001229A400C681D
:102B800004EA020532EA0404F3D14C68022C01D0B5
:102B9000122C10D1DE08083650F826C003F00704C6
:102BA000A7000F24BC402CEA040C0C69BC4044EA8A
:102BB0000C0440F82640D0F800C05E000324B44066
:102BC000E7432CEA040C4C6804F00304B44044EAE4
:102BD0000C0404604C6804F1FF3CBCF1010F03D904
:102BE000112C01D0122C10D1846807EA040CCC6897
:102BF000B44044EA0C048460446824EA02024C684D
:102C0000C4F300149C4014434460C26817408A68AF
:102C1000B2403A43C2604A6812F0805FA9D00022F5
:102C200001922C4A546C44F480445464526C02F473
:102C300080420192019A9C08A61C244A52F82670F0
:102C400003F0030296000F22B24027EA0207224A4D
:102C500090423FF45AAF02F58062904222D002F5D2
:102C60008062904220D002F5806290421ED002F530
:102C7000806290421CD002F5806290421AD002F528
:102C80008062904218D002F58062904216D002F520
:102C90008062904214D002F5806290423FF433AFDC
:102CA0000A2233E7012231E702222FE703222DE730
:102CB00004222BE7052229E7062227E7072225E73A
:102CC000082223E702B0F0BC70477047003801408B
:102CD000003C014000380240000002400AB181611E
:102CE0007047090481617047436931EA030301D0E9
:102CF0008161704709048161704790F83E30DBB212
:102D0000402B10D00369B3F5804F1BD0036D002B0F
:102D10003CD1436CC3F3C813026803F0060343F0CD
:102D2000F00313617047036D2BB9436C026803F025
:102D3000FE0313617047436C026843F00103DBB28A
:102D40001361704790F83D30DBB2212B0FD0436CFC
:102D5000026843F00103DBB21361436B6BB1DB6BC1
:102D60007BB10268536843F4006353607047436C5F
:102D7000026803F0FE031361EFE7826B002AEED1D5
:102D800007E0836BDB6B002BEBD102E0036D012BC3
:102D900000D07047436CC3F3C813026803F0060306
:102DA00043F0F1031361F4E7436C0268DBB2136193
:102DB000436B3BB1DB6B4BB10268536843F4006378
:102DC00053607047826B002AF4D1FAE7836BDB6BA8
:102DD000002BF1D1F5E710B48BB090F83E30DAB2A9
:102DE000C16A046B90F83D30DBB2222B0BD000237C
:102DF000099303685A6909929B690993099B0BB06F
:102E00005DF8044B7047036D0BB9402A17D0036D72
:102E10001BB90369B3F5404F19D0438D9BB2002B0A
:102E200025D1029303685A6902929A690292029A22
:102E30001A6842F400721A6000230365DFE700930A
:102E400003685A6900929B690093009BD7E70023AF
:102E5000019303685A6901929A690192019A1A686A
:102E600042F480721A60036D01330365C7E7438D36
:102E70009BB2012B25D0438D9BB2022B7BD00268E5
:102E8000136843F48063136003685A6812F4006F98
:102E90000ED011F5803F07D0012905D0082903D0B5
:102EA000102901D0202903D15A6842F480525A6077
:102EB0000023089303685A6908929B690893089B4A
:102EC000BAE711F5803F11D0082934D0202932D03B
:102ED000122C2ED0042940D002293ED010293CD0FB
:102EE0000268136823F4806313603BE00268136890
:102EF00023F48063136003685A6812F4006F0CD0E7
:102F00001A6822F480621A600023039303685A69E6
:102F100003929B690393039B8EE7002204925A69F4
:102F200004929A690492049A1A6842F400721A6030
:102F300082E70129CED00268136823F4806313600E
:102F40000023069303685A6906929A690692069AC4
:102F50001A6842F400721A606EE70268136843F45C
:102F6000806313600023059303685A6905929B6987
:102F70000593059B60E704290ED002290CD0102987
:102F80000AD00268136823F4806313600268136830
:102F900043F40063136004E00268136843F4806341
:102FA000136003685A6812F4006F0ED011F5803F69
:102FB00007D0012905D0082903D0102901D02029E4
:102FC00003D15A6842F480525A6000230793036881
:102FD0005A6907929B690793079B2DE7438D9BB224
:102FE0005BB1426A036812781A61436A0133436233
:102FF000438D9BB2013B9BB243857047438D9BB28F
:103000005BB103681A69436A1A70436A0133436209
:10301000438D9BB2013B9BB243857047C36AB3F5B6
:103020002A0F04D0C36AB3F12A4F03D0704701239B
:10303000C36270470823C362F8E70000002800F06D
:10304000C280F8B5044690F83D30002B6DD02423A3
:1030500084F83D302268136823F00103136001F007
:10306000CFF962685A4B9A4264D85A4B98428CBF47
:1030700000230123002B40F0A880574DA5FB00350D
:10308000AF0C2668716821F03F0141EA95417160FB
:1030900021680B6A23F03F0365684D4A95424FD87B
:1030A0007A1C13430B622568E96921F44F4121F032
:1030B000FF016368464A93424CD801385B00B0FB7D
:1030C000F3F0013040F6FC73184278D0C0F30B03E4
:1030D0000B43EB6121680B6823F0C003E269206AAF
:1030E000024313430B6021688B6823F4034323F0EE
:1030F000FF032269E068024313438B602168CB68B9
:1031000023F0FF036269A06902431343CB60226886
:10311000136843F00103136000202064202384F827
:103120003D30206384F83E00F8BD80F83C300AF062
:103130008BF98CE7294B98428CBF0023012399E738
:103140004FF4967202FB07F2254DA5FB025292093D
:103150000132A6E7A268BAB9461E03EB4307B6FBE5
:10316000F7F60136C6F30B06B6FA86F6760946BBC5
:10317000C2B9421E03EB4303B2FBF3F20132C2F3C6
:103180000B0242F40043A3E7461E03EB830707EB61
:103190008707B6FBF7F60136C6F30B06B6FA86F6D6
:1031A0007609E4E7421E03EB830303EB8303B2FBE0
:1031B000F3F20132C2F30B0242F4404388E70423E6
:1031C00086E7012384E7012070470120ACE700BFB8
:1031D000A08601007F841E0083DE1B43FF083D00A4
:1031E000D34D621070477047704708B590F83D3076
:1031F000DAB2438D9BB283B1416A036809781961E1
:10320000436A01334362438D9BB2013B9BB24385CA
:10321000438D9BB20BB9292A00D008BD02685368C0
:1032200023F48063536021230363282380F83D3017
:10323000FFF7DAFFF1E7704708B590F83D30DAB2F2
:10324000438D9BB283B103681969436A1970436A5D
:1032500001334362438D9BB2013B9BB24385438D57
:103260009BB20BB92A2A00D008BD0268536823F428
:103270008063536022230363282380F83D30FFF7E7
:10328000DAFFF1E7704708B590F83D3003F0280306
:10329000282B07D003686FF002025A61002380F8E0
:1032A0003C3008BD0268536823F48063536011F01A
:1032B000040F0BD0002311F0800F09D18289002167
:1032C00080F83C101946FFF7DDFFEAE70123F2E73B
:1032D000028BF4E77047000008B590F83D30DBB290
:1032E000C26A082A01D0202A01D1282B06D0212B1E
:1032F0001ED003686FF480625A6108BD1A4BC36226
:103300000268536823F4E063536003686FF48062DB
:103310005A610268136823F4806313600023036317
:10332000202280F83D2080F83E30FFF7D3FFE4E70D
:103330000D4BC36221230363202380F83D3000231B
:1033400080F83E300268536823F4E06353600368FA
:103350006FF480625A610268136823F4806313601B
:10336000FFF742FFC9E700BF0000FFFF10B590F86C
:103370003D30DBB290F83E20D2B2C46A018D09B96B
:10338000212B04D0212B3BD0402A37D010BD082C54
:1033900004D0202C02D014F5803F19D10268536864
:1033A00023F4E06353600268136843F4007313600E
:1033B00000230363202380F83D3090F83E30DBB2D9
:1033C000402B15D0002380F83E30FFF70BFFDDE7E0
:1033D0000268536823F4E0635360112303630023FE
:1033E00080F83E30202380F83D30FFF7FBFECDE72C
:1033F000002380F83E300DF04FF8C7E7222BC5D1EF
:10340000438D9BB22BB90268536823F480635360E9
:10341000BCE790F83E30DBB2402B0CD0426A036828
:1034200012781A61436A01334362438D9BB2013BB8
:103430009BB24385AAE7036D9BB9C36C012B08D0EF
:10344000836CC3F3072302681361036D01330365C3
:103450009CE7836C0268DBB21361036D0233036582
:1034600094E7036D012B19D0036D022B8ED190F8D8
:103470003D30DBB2222B19D090F83D30DBB2212B4E
:1034800084D1426A036812781A61436A0133436245
:10349000438D9BB2013B9BB2438577E7836C026807
:1034A000DBB21361036D013303656FE702681368D4
:1034B00043F48073136069E708B5C26A90F83D3041
:1034C000DBB2212B00D008BD438D9BB263B1426AB1
:1034D000036812781A61436A01334362438D9BB2D9
:1034E000013B9BB24385EEE7082A04D0202A02D094
:1034F00012F5803F19D10268536823F4E0635360EA
:103500000268136843F400731360002303632023ED
:1035100080F83D3090F83E30DBB2402B15D00023D0
:1035200080F83E30FFF75EFECDE70268536823F473
:10353000E063536011230363002380F83E302023AF
:1035400080F83D30FFF74EFEBDE7002380F83E30A7
:103550000CF0A2FFB7E708B590F83D30DBB2222BA4
:1035600000D008BD438D9BB2032B15D903681A699F
:10357000436A1A70436A01334362438D9BB2013B35
:103580009BB24385438D9BB2032BEAD102685368FB
:1035900023F480635360E4E7C26A022AE1D0012B7E
:1035A000DFD80268136823F48063136002685368ED
:1035B00023F4E063536003681A69436A1A70436A2C
:1035C00001334362438D9BB2013B9BB24385202371
:1035D00080F83D3090F83E30DBB2402B07D000231E
:1035E00080F83E3012230363FFF7FDFDB9E70023A7
:1035F00080F83E3003630CF005FFB2E708B5C26AFD
:10360000438D9BB2042B14D0438D9BB2032B22D04D
:10361000438D9BB2022B39D003681A69436A1A7032
:10362000436A01334362438D9BB2013B9BB24385A6
:1036300010E00268536823F48063536003681A69DA
:10364000436A1A70436A01334362438D9BB2013B64
:103650009BB2438508BD01684B6823F480634B60CF
:10366000042A06D0022A04D00268136823F4806377
:10367000136003681A69436A1A70436A013343622C
:10368000438D9BB2013B9BB24385E3E7012A0BD0FC
:10369000102A09D0042A38D0022A36D002681368CA
:1036A00043F40073136004E00268136823F480633A
:1036B000136003681A69436A1A70426A531C4362B2
:1036C000438D9BB2013B9BB2438503681B695370DA
:1036D000436A01334362438D9BB2013B9BB24385F6
:1036E0000268536823F440735360202380F83D3010
:1036F00090F83E30DBB2402B0DD0002380F83E30F6
:1037000012230363FFF76FFDA4E70268136843F415
:1037100080631360CDE7002380F83E3003630CF034
:1037200071FE97E7704710B5806B90F83D20416BB4
:103730000023CB63816BCB630468216821F4806133
:1037400021604385416B0B65816B0B6501680B68DC
:1037500023F001030B6090F83D30DBB2602B0DD0FD
:10376000D2B202F02802282A12D0202380F83D305D
:10377000002380F83E300CF0C3FD10BD202380F8FC
:103780003D30002380F83E300364FFF7CBFFF4E7C1
:103790000268136843F0010313600268136843F47E
:1037A0008063136000230363282380F83D30E2E741
:1037B00010B5044690F83D30DBB290F83E20D2B20E
:1037C000102A33D003F02802282A37D02268526802
:1037D00012F4006F04D1602B02D0202384F83D3016
:1037E0000023236384F83E3023685A6812F4006F84
:1037F00048D05A6822F400625A60626B92F8353001
:10380000DBB2012B20D0424B1365606BFEF7D8F979
:10381000002849D02268136823F001031360202395
:1038200084F83D30606B036D98473DE0222BC9D191
:1038300001680A6822F400620A60C3E70023236378
:10384000282384F83D30CFE7A36B314A1A65A06B7B
:10385000FEF7B6F940B323685A6912F0400F05D05D
:103860001A69636A1A70636A0133636222681368B3
:1038700023F001031360202384F83D30A06B036D17
:10388000984711E094F83D20D2B2602A16D05A69C8
:1038900012F0400F05D01A69636A1A70636A013327
:1038A000636220460CF02CFD94F83D30DBB2226CB4
:1038B00012F0040F01D0282B18D010BD202284F85C
:1038C0003D20002222645A6912F0400F05D01A6987
:1038D000636A1A70636A013363622268136823F0B3
:1038E000010313602046FFF71DFFDDE722685368E0
:1038F00023F4E0635360074BE36200232363202239
:1039000084F83D2084F83E302046FFF7E3FCD4E7FE
:10391000273704080000FFFF30B583B0044690F855
:103920003D50EDB20268536823F4E0635360002316
:10393000019303685A6901921A6842F001021A6001
:10394000019B0268136823F48063136003685A685C
:1039500012F4006F38D0222D21D02A2D1FD0426BB7
:103960001268526892B24285428D92B21AB1026CCC
:1039700042F0040202645A6822F400625A60606BEA
:10398000FEF720FA01281FD0636B444A1A65606B6A
:10399000FEF716F9C0B1606B036D984714E0A26B97
:1039A0001268526892B26285628D92B21AB1226C2C
:1039B00042F0040222645A6822F400625A60A06B4A
:1039C000FEF700FA012842D1638D9BB233B323681E
:1039D0005A6912F0040F0AD01A69636A1A70636A8E
:1039E00001336362638D9BB2013B9BB263852368A5
:1039F0005A6912F0400F0AD01A69636A1A70636A32
:103A000001336362638D9BB2013B9BB26385638D1F
:103A10009BB21BB1236C43F004032364236C13BBE0
:103A20002A2D25D094F83D30DBB2282B29D0236BEA
:103A3000222B01D0222D19D100232363202284F8C8
:103A40003D2084F83E302046FFF7F5FB0EE0A36BE7
:103A5000124A1A65A06BFEF7B3F80028B4D0A06B29
:103A6000036D9847B0E72046FFF7A2FE03B030BDD4
:103A700000232363282384F83D302046FFF7DBFB37
:103A8000D0E7074BE36200232363202284F83D2024
:103A900084F83E302046FFF71DFCE7E7273704088F
:103AA0000000FFFF70B5044602685568C66A90F8CA
:103AB0003E30DBB290F83D10102B14D0C8B2402B32
:103AC00011D0236C002B71D05369002113F0020F29
:103AD0006FD015F4007F6CD0236C03B19169204640
:103AE000FFF7D1FB70BD9069536913F0010105D157
:103AF000B6F52A0FF6D0B6F12A4FF3D011B115F46E
:103B0000007F25D113F0080F02D015F4007F26D1D5
:103B100013F0020F02D015F4007F24D110F0040F2F
:103B200029D0526812F4006FDCD113F0800F05D059
:103B300015F4806F02D013F0040F18D013F0040FA7
:103B4000D0D015F4007FCDD02046FFF7B5FCC9E7F3
:103B50002046FFF763FA2046FFF7CFF8C2E720467A
:103B6000FFF722F9BEE72046FFF735F9BAE720460E
:103B7000FFF7FCFBB6E7526812F4006FB2D113F006
:103B8000400F05D015F4806F02D013F0040F09D058
:103B900013F0040FA6D015F4007FA3D02046FFF742
:103BA0002DFD9FE72046FFF7D6FC9BE791695369FF
:103BB0008CE713F0100F02D015F4007F17D12128E5
:103BC00019D0292817D013F0400F05D015F4806FB5
:103BD00002D013F0040F27D013F0040F82D015F495
:103BE000007F3FF47FAF2046FFF708FA7AE72046D0
:103BF000FFF792FE76E713F0800F05D015F4806F83
:103C000002D013F0040F0BD013F0040F3FF46AAF8F
:103C100015F4007F3FF466AF2046FFF7DFF961E758
:103C20002046FFF7E2FA5DE72046FFF705FB59E77C
:103C3000F8B5044603685D695F6815F4807F07D0B6
:103C400017F4807F3BD06FF480725A61012600E048
:103C5000002615F4007F08D017F4807F05D046F0C9
:103C6000020623686FF400725A6115F4806F18D051
:103C700017F4807F15D094F83E30DBB2628D91B29C
:103C800094F83D20D2B2206B202B1AD023686FF419
:103C900080625A6146F0040694F83E30DBB2102B85
:103CA0001DD015F4006F08D017F4807F05D046F0C2
:103CB000080623686FF400625A61B6B9F8BD0026A1
:103CC000C7E70029E2D1212A05D0292A03D0282AD2
:103CD000DCD12128DAD12046FFF7FEFAE1E722689D
:103CE000136843F400731360DBE7236C1E43266400
:103CF0002046FFF75DFDE1E790F83D30DBB2202B79
:103D000001D002207047242380F83D3002681368F8
:103D100023F0010313600268536A23F01003536217
:103D20000268536A194351620268136843F0010341
:103D30001360202380F83D300020704790F83D301C
:103D4000DBB2202B01D002207047242380F83D30C5
:103D50000268136823F0010313600268536A9BB280
:103D600023F00F03194389B251620268136843F0CC
:103D700001031360202380F83D300020704708B312
:103D800038B5044603684CF6CC421A60036845F225
:103D900055521A60036842685A60036882689A60E4
:103DA000FDF77EF905462368DA6832B1FDF778F948
:103DB000401B3028F7D9032003E04AF6AA221A60F4
:103DC000002038BD0120704703684AF6AA221A6015
:103DD0000020704710B582B000230193194B1A6C74
:103DE00042F080521A641B6C03F080530193019BD4
:103DF000154B01221A60FDF753F90446134B5B681B
:103E000013F4803F08D1FDF74BF9001BB0F57A7F22
:103E1000F4D9032002B010BD0D4B01221A60FDF74A
:103E20003FF90446094B5B6813F4003F07D1FDF7E7
:103E300037F9001BB0F57A7FF4D90320EAE70020B8
:103E4000E8E700BF0038024040000E42007000402A
:103E500044000E42002800F0B98170B582B00446DB
:103E6000036813F0010F3BD0A64B9B6803F00C03D3
:103E7000042B2CD0A34B9B6803F00C03082B21D000
:103E80006368B3F5803F4FD0B3F5A02F52D09D4B60
:103E90001A6822F480321A601A6822F480221A60AA
:103EA0006368002B50D0FDF7FBF80546954B1B6867
:103EB00013F4003F14D1FDF7F3F8401B6428F5D943
:103EC00003208AE18F4B5B6813F4800FD8D08D4BB1
:103ED0001B6813F4003F03D06368002B00F0788167
:103EE000236813F0020F54D0864B9B6813F00C0F1D
:103EF0003ED0844B9B6803F00C03082B33D0E3685F
:103F0000002B67D0804B01221A60FDF7C9F80546E7
:103F10007C4B1B6813F0020F53D1FDF7C1F8401B17
:103F20000228F5D9032058E1764A136843F4803318
:103F30001360B5E7734B1A6842F480221A601A685E
:103F400042F480321A60ABE7FDF7AAF805466D4BE4
:103F50001B6813F4003FC3D0FDF7A2F8401B642890
:103F6000F5D9032039E1674B5B6813F4800FC6D1A4
:103F7000644B1B6813F0020F03D0E368012B40F081
:103F80002981604A136823F0F803216943EAC103D9
:103F90001360236813F0080F40D0636963B35B4B71
:103FA00001221A60FDF77CF80546564B5B6F13F053
:103FB000020F33D1FDF774F8401B0228F5D9032016
:103FC0000BE1504A136823F0F803216943EAC10367
:103FD0001360DEE74C4B00221A60FDF761F80546DE
:103FE000484B1B6813F0020FD3D0FDF759F8401B64
:103FF0000228F5D90320F0E0444B00221A60FDF7B7
:104000004FF805463F4B5B6F13F0020F06D0FDF7EC
:1040100047F8401B0228F5D90320DEE0236813F09F
:10402000040F78D0374B1B6C13F0805F0DD1002349
:104030000193344B1A6C42F080521A641B6C03F0EB
:1040400080530193019B012500E00025304B1B6844
:1040500013F4807F21D0A368012B32D0052B36D0FA
:10406000284B1A6F22F001021A671A6F22F004021D
:104070001A67A368002B34D0FDF712F80646214BCF
:104080001B6F13F0020F45D1FDF70AF8801B41F2B8
:1040900088339842F3D903209FE01D4A136843F404
:1040A00080731360FCF7FCFF0646194B1B6813F482
:1040B000807FD0D1FCF7F4FF801B0228F5D90320C4
:1040C0008BE0104A136F43F001031367D1E70D4BE8
:1040D0001A6F42F004021A671A6F42F001021A675F
:1040E000C7E7FCF7DDFF0646064B1B6F13F0020F18
:1040F00010D0FCF7D5FF801B41F288339842F3D9EA
:1041000003206AE00038024000004742800E474228
:1041100000700040E5B9A369002B5DD0314A926878
:1041200002F00C02082A5AD0022B17D02E4B002284
:104130001A60FCF7B5FF04462A4B1B6813F0007F9A
:1041400042D0FCF7ADFF001B0228F5D9032044E064
:10415000244A136C23F080531364DCE7224B0022C3
:104160001A60FCF79DFF05461E4B1B6813F0007F8D
:1041700006D0FCF795FF401B0228F5D903202CE060
:10418000E369226A1343626A43EA8213A26A52080D
:10419000013A43EA0243E26A43EA0263114A536086
:1041A000114B01221A60FCF77BFF04460D4B1B6884
:1041B00013F0007F06D1FCF773FF001B0228F5D92E
:1041C00003200AE0002008E0002006E001207047FC
:1041D000012002E0012000E0002002B070BD0120BB
:1041E000FBE700BF0038024060004742014B01225C
:1041F0001A6070474C004742F8B5244B9B6803F0A7
:104200000C03042B3DD0082B3DD1204B5A6802F003
:104210003F025B6813F4800F12D01C4B5968C1F346
:10422000881100231A48A1FB0001FCF73DFD174B44
:104230005B68C3F3014301335B00B0FBF3F023E0A1
:10424000124B5B68C3F388135C010025E41A65F127
:104250000005AE0146EA9466A701381B66EB05012E
:10426000CC0044EA5074C500E81844F100018B0208
:1042700043EA90538402204619460023FCF714FDBC
:10428000D5E7034800E00348F8BD00BF003802400E
:1042900040787D010024F400002800F09A8070B579
:1042A0000D4604464F4B1B6803F00F038B4208D2A8
:1042B000CBB24C4A1370136803F00F038B4240F0EB
:1042C0008A80236813F0020F17D013F0040F04D074
:1042D000454A936843F4E0539360236813F0080F52
:1042E00004D0414A936843F4604393603E4A936824
:1042F00023F0F003A1680B439360236813F0010FD0
:1043000032D06368012B21D09A1E012A25D9364A62
:10431000126812F0020F60D033498A6822F003025B
:1043200013438B60FCF7BCFE06462F4B9B6803F0E3
:104330000C036268B3EB820F16D0FCF7B1FE801B52
:1043400041F288339842F0D9032041E0264A1268AE
:1043500012F4003FE0D101203AE0234A126812F043
:10436000007FD9D1012033E01E4B1B6803F00F03FF
:10437000AB4207D9EAB21B4B1A701B6803F00F035C
:10438000AB422CD1236813F0040F06D0164A936871
:1043900023F4E053E1680B439360236813F0080FA4
:1043A00007D0114A936823F46043216943EAC103AB
:1043B0009360FFF721FF0C4B9B68C3F303130B4A79
:1043C000D35CD8400A4B18600020FCF71FFE002089
:1043D00070BD012070470120FAE70120F8E70120B5
:1043E000F6E700BF003C024000380240E4850508C3
:1043F00074380020014B1868704700BF74380020E3
:1044000008B5FFF7F7FF044B9B68C3F38223034A09
:10441000D35CD84008BD00BF00380240F4850508D1
:104420007047000008B5064BDB6813F0800F00D121
:1044300008BDFFF7F5FF034B80221A70F8E700BFB5
:10444000003802400E38024030B583B0044603689D
:1044500013F0030F14D1236813F00C0F5AD1236803
:1044600013F0200F40F0AF80236813F0100F00F01E
:10447000118194F82C20884B1A60002003B030BDC5
:10448000864B00221A60FCF70BFE0546844B1B6826
:1044900013F0006F06D0FCF703FE431B022BF5D987
:1044A0000320EBE7236813F0010F07D06268A368CD
:1044B0001B0743EA82137A4AC2F88430236813F058
:1044C000020F15D0764AD2F884106068E3681B06A4
:1044D00043EA801301F0E0410B43C2F88430D2F884
:1044E0008C3023F01F03E16901390B43C2F88C3093
:1044F0006A4B01221A60FCF7D3FD0546684B1B6826
:1045000013F0006FA7D1FCF7CBFD401B0228F5D9B3
:104510000320B3E7634B00221A60FCF7C1FD054698
:104520005F4B1B6813F0005F06D0FCF7B9FD431B1F
:10453000022BF5D90320A1E7236813F0040F16D04E
:10454000574AD2F88810206963691B0643EA801332
:1045500001F0E0410B43C2F88830D2F88C3023F4EC
:10456000F853216A013943EA0123C2F88C302368E9
:1045700013F0080F14D04A4AD2F88830216903F0AA
:10458000706343EA8113A16943EA0173C2F888307A
:10459000D2F88C3023F44033616A0B43C2F88C307C
:1045A000404B01221A60FCF77BFD05463C4B1B6823
:1045B00013F0005F7FF453AFFCF772FD401B02283D
:1045C000F4D903205AE700230193354B1A6C42F0CB
:1045D00080521A641B6C03F080530193019B324A92
:1045E000136843F480731360FCF75AFD05462E4BA5
:1045F0001B6813F4807F06D1FCF752FD401B022894
:10460000F5D903203AE7264B1B6F13F4407312D001
:10461000A26A02F440729A420DD0214B1A6F22F422
:104620004072224901200860002008601A671B6F51
:1046300013F0010F12D1A36A03F44072B2F5407F68
:104640001DD0174A936823F4F813936014490B6F35
:10465000A26AC2F30B0213430B6705E7FCF720FDC8
:1046600005460F4B1B6F13F0020FE4D1FCF718FD4A
:10467000401B41F288339842F3D90320FEE60849F3
:104680008A6822F4F81223F0704323F44073134332
:104690008B60DBE70020F1E6E0114742680047420B
:1046A000003802407000474200700040400E474210
:1046B00010B504460368DA6812F4807F03D09B6863
:1046C00013F4805F0FD12368DA6812F4007F03D0FF
:1046D0009B6813F4005F0FD10C4B4FF400325A610A
:1046E0000123637710BD0CF0FAF82268D368DBB2BF
:1046F00063F4C073D360E6E7204600F064FB2268F1
:10470000D368DBB263F42073D360E5E7003C01407B
:1047100038B504460268D36823F0A003D360FCF7E1
:10472000BFFC05462368DB6813F0200F07D1FCF7B8
:10473000B7FC401BB0F57A7FF4D9032000E00020DD
:1047400038BD38B50368DA6812F0400F01D0002098
:1047500038BD04464FF0FF32DA60FCF7A1FC054695
:104760002368DB6813F0400F07D1FCF799FC431B6B
:10477000B3F57A7FF4D90320EAE70020E8E738B5FB
:1047800000285CD00446437F002B41D0022363778E
:104790002368CA225A62236853225A622046FFF7CE
:1047A000D0FF0546002837D12268936823F4E00340
:1047B00023F04003936021688A686368206903439B
:1047C0006069034313438B602368E2681A612268BF
:1047D0001369A16843EA014313612268D36823F097
:1047E0008003D36023689B6813F0200F1BD02268DE
:1047F000136C23F4802313642268136CA1690B43A8
:1048000013642368FF225A6201236377284638BD68
:1048100003770BF03BF9B9E72368FF225A620423C0
:1048200063770125F2E72046FFF772FF0028DED00C
:104830002368FF225A62042363770125E6E70125F6
:10484000E4E70023092803D901330A38C0B2F9E7A5
:104850001B01DBB218437047F8B5037F012B78D0FA
:1048600004460E460123037702234377002A47D1EB
:1048700003689B6813F0400F01D10023CB703078A0
:10488000FFF7DFFF05047078FFF7DBFF45EA00253F
:10489000B078FFF7D6FF0543F07845EA0045236876
:1048A000CA225A62236853225A622046FFF749FF00
:1048B0000746002836D1236805F07F3525F0FE45F0
:1048C0001D602268936823F48023936021688B68BD
:1048D000F2683069024313438B602268D36823F087
:1048E0008003D36023689B6813F0200F23D02368D4
:1048F000FF225A6201236377002323773846F8BDED
:1049000003689B6813F0400F01D10023CB7035780A
:104910007078000240EA0540B5782843F57840EA0F
:104920000545BCE72368FF225A620423637700230E
:1049300023770127E2E72046FFF7EAFE0028D6D0DA
:104940002368FF225A620423637700232377012719
:10495000D4E70227D2E770B5037F012B66D0044667
:104960000E4601230377022343773AB94B7813F0BD
:10497000100F03D003F0EF030A334B70002A33D13A
:10498000F078FFF75EFF05047078FFF75AFF45EAFD
:104990000025B078FFF755FF0543307845EA4035EC
:1049A0002368CA225A62236853225A622046FFF7BC
:1049B000C8FE064618BB236825F07F4525F0C005D4
:1049C0005D602268D36823F08003D36023689B680E
:1049D00013F0200F1CD02368FF225A620123637753
:1049E00000232377304670BDF5787078000240EAE6
:1049F0000540B5782843357840EA4535D0E7236847
:104A0000FF225A6204236377002323770126E9E714
:104A10002046FFF77DFE0028DDD02368FF225A6282
:104A200004236377002323770126DBE70226D9E7F7
:104A3000F0B583B00D46634B1B686349A1FB0313BC
:104A4000DB0A4FF47A7101FB03F30193037F012B1F
:104A500000F0B58004460123037702234377002A40
:104A600061D103689B6813F0400F01D10023EB7004
:104A7000EF692878FFF7E5FE06046878FFF7E1FEA6
:104A800046EA0026A878FFF7DCFE0643E87846EA07
:104A9000004695F82000FFF7D4FE46EA00663E4344
:104AA0006B691E436868AB6918432368CA225A625F
:104AB000236853225A626B6AB3F5807F4DD0226817
:104AC000936823F4007393602268D368DBB263F4C5
:104AD0002073D360019B5A1E0192002B67D023687C
:104AE000DA6812F0020FF5D01E622368986422681B
:104AF000936843F4007393602268936843F400530F
:104B00009360324B1A6842F400321A609A6842F499
:104B100000329A602368FF225A62012363770020E3
:104B2000207703B0F0BD03689B6813F0400F01D1FC
:104B30000023EB70EA6929786B781B0243EA014392
:104B4000A9780B43E97843EA014395F8201043EA3A
:104B5000016313436E691E43A4E72268936823F43C
:104B6000807393602268D368DBB263F4C073D36050
:104B7000019B5A1E019293B12368D96811F0010F6D
:104B8000F6D0DE61236858642268936843F480732A
:104B900093602268936843F480539360B1E723687D
:104BA000FF225A620320607700232377B9E7236846
:104BB000FF225A620320607700232377B1E70220A7
:104BC000AFE700BF74380020D34D6210003C0140B5
:104BD000030903EB830300F00F0000EB4300C0B2B6
:104BE000704770B50C4603689B6A4B6003681B698D
:104BF000C3F30E038B6003681D68C5F30641C5F35C
:104C000005402070C5F30626667005F07F05A57087
:104C100001F04003E37052B9FFF7DAFF207030462D
:104C2000FFF7D6FF60702846FFF7D2FFA070002084
:104C300070BD70B503685B68C3F30740C870C3F309
:104C400004264E7003F03F058D70C3F342330B70A2
:104C50005AB90C46FFF7BCFFE0703046FFF7B8FFCB
:104C600060702846FFF7B4FFA070002070BD000000
:104C7000037F012B7CD030B482B001230377022361
:104C800043770368CA245C62036853245C62056846
:104C9000AB6813F4806F13D0364B1B68364CA4FB03
:104CA0000343DB0A4FF47A7404FB03F30193019B83
:104CB0005C1E0194002B48D0EB6813F0040FF6D172
:104CC000AB6823F48063AB602A4B1B682A4CA4FBBF
:104CD0000343DB0A4FF47A7404FB03F30193019B53
:104CE0005C1E0194002B38D00368DC6814F0040FBC
:104CF000F5D0596101688B6823F007038B60016868
:104D00008B681A438A601D4B1A6842F480021A604D
:104D10009A6842F480029A600268D368DBB263F456
:104D20009063D3600268936843F4804393600268A1
:104D3000936843F4806393600368FF225A620123FF
:104D400043770023037718460FE0FF236B620323AA
:104D5000437700220277184607E00368FF225A6271
:104D60000323437700220277184602B030BC704715
:104D70000220704774380020D34D6210003C01407F
:104D800010B504460368DA6812F4806F03D09B689C
:104D900013F4804F06D1084B4FF480025A6101236F
:104DA000637710BD0BF09AFD2268D368DBB263F421
:104DB0009063D360EFE700BF003C014003685033CD
:104DC00053F82100704770470268D36843F001032D
:104DD000D3600268936803F00703062B03D01368BF
:104DE00043F001031360002070477047704770471D
:104DF000704710B5044603681A6912F0020F11D00B
:104E0000DA6812F0020F0DD06FF002021A6101236E
:104E1000037703689B6913F0030F70D0FFF7E6FF79
:104E20000023237723681A6912F0040F12D0DA687E
:104E300012F0040F0ED06FF004021A6102232377E0
:104E400023689B6913F4407F5FD02046FFF7CEFFB5
:104E50000023237723681A6912F0080F12D0DA684A
:104E600012F0080F0ED06FF008021A6104232377A6
:104E70002368DB6913F0030F4ED02046FFF7B6FF1F
:104E80000023237723681A6912F0100F12D0DA6812
:104E900012F0100F0ED06FF010021A610823237762
:104EA0002368DB6913F4407F3DD02046FFF79EFF67
:104EB0000023237723681A6912F0010F03D0DA6800
:104EC00012F0010F36D123681A6912F0800F03D057
:104ED000DA6812F0800F34D123681A6912F0400F9B
:104EE00003D0DA6812F0400F32D123681A6912F049
:104EF000200F03D0DA6812F0200F30D110BDFFF779
:104F000074FF2046FFF773FF8AE72046FFF76DFF27
:104F10002046FFF76CFF9BE72046FFF766FF204621
:104F2000FFF765FFACE72046FFF75FFF2046FFF77E
:104F30005EFFBDE76FF001021A6120460BF08AFDAB
:104F4000C1E76FF080021A61204600F0B1F8C3E7B4
:104F50006FF040021A612046FFF74AFFC5E76FF085
:104F600020021A61204600F0A2F8C7E70368304A21
:104F7000904212D0B0F1804F0FD0A2F57C42904207
:104F80000BD002F58062904207D002F58062904219
:104F900003D002F57842904203D123F070034A68AF
:104FA0001343234A90422AD0B0F1804F27D0A2F574
:104FB0007C42904223D002F5806290421FD002F5DD
:104FC000806290421BD002F57842904217D002F5E1
:104FD0007052904213D002F5806290420FD002F5D9
:104FE000806290420BD0A2F59832904207D002F531
:104FF0008062904203D002F58062904203D123F494
:105000004073CA68134323F080034A691343036063
:105010008B68C3620B688362054B984203D003F52B
:105020008063984201D10B69036301234361704798
:1050300000000140B0B110B5044690F83D3063B1B6
:10504000022384F83D30214651F8040BFFF78EFF10
:10505000012384F83D30002010BD80F83C300AF078
:1050600025FFEDE70120704790F83C30012B1CD064
:1050700070B4012680F83C60022380F83D3002685D
:105080005568936825F070050C682C4323F0800563
:105090004B682B4354600268936080F83D600023A6
:1050A00080F83C30184670BC70470220704770474B
:1050B0007047F0B40C6894FAA4F4B4FA84F42CE0C9
:1050C0008E68826893FAA3F5B5FA85F56D0007FA44
:1050D00005F522EA050293FAA3F5B5FA85F56D0008
:1050E00006FA05F52A4382600E69C26893FAA3F5B1
:1050F000B5FA85F56D00032707FA05F522EA0502E2
:1051000093FAA3F5B5FA85F56D0006FA05F52A437D
:10511000C2604A68022A22D001340B6833FA04F2D2
:1051200050D00122A2401340F6D04E68026893FA94
:10513000A3F5B5FA85F56D00032707FA05F522EA10
:10514000050293FAA3F5B5FA85F56D0006FA05F5A3
:105150002A4302604A68013A012AC5D8B0E793FAA7
:10516000A3F2B2FA82F2072A15D84D69026A93FABD
:10517000A3F6B6FA86F6B6000F2707FA06F622EA75
:10518000060293FAA3F3B3FA83F39B0005FA03F341
:1051900013430362C0E74A69456A1B0A93FAA3F600
:1051A000B6FA86F6B6000F2707FA06F625EA0605D0
:1051B00093FAA3F3B3FA83F39B0002FA03F32B43AE
:1051C0004362A9E74A68013A012A02D90020F0BCEB
:1051D0007047C968426822EA030201FB03F31343E4
:1051E0004360F3E7034B9B68C3F30313024AD35CAA
:1051F000D840704700380240E4850508034B9B689F
:10520000C3F38223024AD35CD8407047003802407F
:10521000F4850508034B9B68C3F34233024AD35C11
:10522000D840704700380240F48505080F4B5B6892
:1052300003F4800323B90E4B082803D000207047E5
:105240000C4BF9E7094A506800F03F00B3FBF0F35C
:105250005068C0F3881000FB03F05368C3F30143A8
:1052600001335B00B0FBF3F0704700BF0038024031
:105270000024F40040787D0108B5084B9B6803F0DA
:105280000C03042B05D0082B05D10820FFF7CEFF17
:1052900002E0034800E0034808BD00BF00380240B8
:1052A00040787D010024F40010B50446FFF7E4FFC8
:1052B0002060FFF797FF6060FFF7A0FFA0606068C5
:1052C000FFF7A8FFE06010BDC36813F4005F01D0D2
:1052D0000120704730B585B004460D46C36823F4FD
:1052E000164323F00C034A68C9680A4329690A4334
:1052F000A9690A431343C360AB68026922F44052B0
:10530000134303616B69426922F4407213434361A2
:105310006846FFF7C9FF3C4B9C4216D03B4B9C4272
:105320001AD03B4B9C4219D03A4B9C4218D03A4B76
:105330009C4217D0394B9C4216D0394B9C4215D019
:10534000384B9C4214D001205BE0039B002B57D0CC
:105350002A687AB9012054E0029BF7E7029BF5E73F
:10536000039BF3E7029BF1E7029BEFE7029BEDE76C
:10537000029BEBE7A969B1F5004F20D003EB830353
:1053800003EB83039200B3FBF2F32748A0FB031265
:105390005209110189B2642505FB12331B01323316
:1053A000A0FB0323C3F34F1303F0F0020A4492B2AD
:1053B00003F00F0313449BB2A360002021E003EB32
:1053C000830303EB83035200B3FBF2F31648A0FB05
:1053D00003125209110189B2642505FB1233DB0067
:1053E0003233A0FB0323C3F34F135A0002F4F872C5
:1053F0000A4492B203F0070313449BB2A360DCE7B4
:10540000012005B030BD00BF001001400044004045
:105410000048004000140140004C00400050004093
:1054200000780040007C00401F85EB5140BA80B2FC
:105430007047030203F47F0343EA0063020A02F4A5
:105440007F42134343EA1060704708B500F078F8D4
:1054500000F044FA00F097FA04F0DAFB01F030F8BB
:1054600004F05AFB08BD000010B504462D4B1B6824
:10547000834231D82B4B5B68A34235D92379002B6B
:105480003AD12388B3F5C86F3ED8264B1B682188D4
:105490005A1894420FD0107968B922484068904257
:1054A00009D020488068904236D05A5A2280E01AAB
:1054B0005A5A1A44508061885A1894420BD0107975
:1054C00048B918488068A04229D020885852D21A7A
:1054D00021880B445A8010BD134B40F25D121349D2
:1054E00013480BF083FEC5E70F4B4FF4AF72114921
:1054F0000F480BF07BFEC1E70B4B40F25F120E49E9
:105500000B480BF073FEBCE7074B4FF4B1720B492D
:1055100007480BF06BFEB8E7024A9460C5E7014804
:105520008260D2E798420020FC8505082C86050899
:10553000448605086C86050888860508A486050843
:1055400010B40B4B23F003030A4A13604FF4C860F6
:1055500018800021598019711918516001240C71AB
:10556000A3F84006488093605DF8044B704700BF85
:10557000875400209842002000283DD038B50446CA
:1055800010F0030F28D11D4B1B68A34203D81B4BFF
:105590005B68A34206D81A4B4FF4D77219491A48D0
:1055A0000BF024FE154B1B68A34214D8134B5B6809
:1055B000A34210D9A4F1080514F8043CA3B10023B8
:1055C00004F8043C0D4B9B68AB4201D90B4B9D602A
:1055D0002846FFF749FF38BD094B4FF4D6720B49F7
:1055E00009480BF003FECEE7054B4FF4E072084983
:1055F00005480BF0FBFDE2E7704700BF9842002032
:10560000FC850508F486050844860508D08605084B
:105610000C870508F8B50546CC1CA4B224F0030499
:10562000A4B20B2C05D9B4F5C86F03D900252846C0
:10563000F8BD0C24374B1B68AB4203D8354B5B6875
:10564000AB4206D8344B40F2F312344934480BF0E5
:10565000CDFD304B1B68AB42E9D82E4A5268AA42B6
:10566000E5D9A5F10807FF1ABFB235F8086CF61B9B
:10567000B6B2083EB6B2B44220D8B44248D8D6D06A
:10568000244B1A6835F8083CD118087910BBD05A59
:10569000E3199BB208339BB21E4CA4688C4215D010
:1056A000D11800240C71D0524F8025F8083CD15AF3
:1056B000B1F5C86FBBD00A445380B8E7164B40F22F
:1056C0000622184916480BF091FDD6E7D118114C67
:1056D000A160E5E704F11403B342A8D8E3199BB233
:1056E00008339BB2D1180B488068884201D9094819
:1056F00081600020087135F8080CD0524F8025F8E1
:10570000083CD15AB1F5C86F91D00A4453808EE756
:1057100000258CE798420020FC85050820870508B5
:10572000448605083887050800287ED0F8B5C21CD5
:1057300092B222F0030292B20B2A04D9B2F5C86FDA
:1057400002D9002070E00C22394B9F681E68BB1BF9
:105750009BB240E001232371A7420ED025440835B7
:10576000334B5B689D421DD814F0030522D14DBB1D
:1057700004F1080058E03F8837443B791BB12C4ABC
:105780005268BA42F7D12A4A97605268BA42E5D0C5
:10579000002BE3D0274B40F2CF22274927480BF0BC
:1057A00025FDDBE7234B40F2D322254923480BF0AC
:1057B0001DFDD9E71F4B40F2D52222491F480BF0AF
:1057C00015FDD4E71B4B40F2D7221F491B480BF0B5
:1057D0000DFDCDE723889C461546C2F5C86083427F
:1057E00021D2F41820790028F4D1F15AA1EB0C0150
:1057F0000839A942EED305F114008142AAD31A4414
:1058000092B2083292B2B118002008712088B052CA
:105810004B80228001232371B35AB3F5C86F9BD00C
:1058200033445A8098E70020F8BD0020704700BF3D
:1058300098420020FC85050858870508448605081D
:1058400074870508A4870508D487050810B5836800
:105850001C6824B122681A6014F0030F01D120469D
:1058600010BD044B4FF4A472034904480BF0BEFC76
:10587000F5E700BFF887050828880508448605086D
:1058800038B505460C4611F0030F05D1AB681B680F
:105890002360AB681C6038BD034B4FF4CE720349E4
:1058A00003480BF0A3FCF1E7F88705084C880508CE
:1058B00044860508836800221A604368033323F096
:1058C00003034188914208DD816809681960816895
:1058D0000B6001880B440132F3E7704710B50024D8
:1058E00006E0054B53F82400FFF7E4FF0134A4B2AF
:1058F000082CF6D910BD00BFD084050808B50828CB
:1059000005D8074B53F82000FFF7A0FF08BD054B53
:1059100040F28712044905480BF068FC0020F5E7C7
:10592000D0840508F887050880880508448605089E
:1059300008B5082806D821B1064B53F82000FFF718
:105940009FFF08BD044B40F2DB12044904480BF0F2
:105950004DFCF6E7D0840508F8870508A0880508FF
:105960004486050811F0010F0CD008B5436823B137
:1059700090F82B3013F0080F00D108BD011D04F082
:105980004BFCFAE77047704770B582B004460D468D
:1059900039B10B6801936368019A9A4205D102B04C
:1059A00070BD0B4B1B680193F5E7261D01A930461E
:1059B00001F0C6FC01A9304604F0C8F935B12B68E6
:1059C000636001212046FFF7CDFFE8E70023F7E7FA
:1059D000D085050811B10B68C36070470023FBE751
:1059E00011B10B68836070470023FBE7F8B50446EC
:1059F00016461D460F4609B10B6863B93946204665
:105A0000FFF7C2FF31462046FFF7EAFF294620464E
:105A1000FFF7E0FFF8BD1146FFF7E2FF29462046F9
:105A2000FFF7D8FF39462046FFF7AEFFF2E7000048
:105A30002DE9F04104460D4616461F46DDF81C8050
:105A4000B8F1000F22D000206060A060E06084F810
:105A50002B00032384F82030069BE361104A13785F
:105A6000591C117084F82E30089B23613B46324646
:105A700029462046FFF7BAFF2046C04768B9094BC0
:105A80001A6822601C602046BDE8F081064BFB22AC
:105A9000064907480BF0AAFBD5E70020F4E700BF52
:105AA000C84200208C890020BC880508F0880508C1
:105AB00044860508014B1860704700BF908900209C
:105AC00008B590F82B3013F0010F06D143F0010315
:105AD00080F82B3013F0040F00D108BD0321FFF72D
